{
  "_format": "hh-sol-artifact-1",
  "contractName": "StakeWrap",
  "sourceName": "contracts/StakeWrap.sol",
  "abi": [
    {
      "inputs": [],
      "stateMutability": "nonpayable",
      "type": "constructor"
    },
    {
      "inputs": [],
      "name": "AmountZero",
      "type": "error"
    },
    {
      "inputs": [],
      "name": "BaseFeesNotSet",
      "type": "error"
    },
    {
      "inputs": [],
      "name": "ContractAccountId32AlreadySet",
      "type": "error"
    },
    {
      "inputs": [],
      "name": "ContractAccountId32NotSet",
      "type": "error"
    },
    {
      "inputs": [],
      "name": "Expired",
      "type": "error"
    },
    {
      "inputs": [],
      "name": "Exploited",
      "type": "error"
    },
    {
      "inputs": [
        {
          "internalType": "uint256",
          "name": "fee",
          "type": "uint256"
        }
      ],
      "name": "FeeFormatError",
      "type": "error"
    },
    {
      "inputs": [],
      "name": "HotkeyZero",
      "type": "error"
    },
    {
      "inputs": [],
      "name": "InsufficientBalance",
      "type": "error"
    },
    {
      "inputs": [],
      "name": "InvalidDelegate",
      "type": "error"
    },
    {
      "inputs": [
        {
          "internalType": "uint256",
          "name": "simTao",
          "type": "uint256"
        },
        {
          "internalType": "uint64",
          "name": "taoInPool",
          "type": "uint64"
        }
      ],
      "name": "MoveStakeSimTaoExceedsPool",
      "type": "error"
    },
    {
      "inputs": [],
      "name": "NoOperation",
      "type": "error"
    },
    {
      "inputs": [],
      "name": "OnlyOwner",
      "type": "error"
    },
    {
      "inputs": [],
      "name": "OnlyOwnerOrExecutor",
      "type": "error"
    },
    {
      "inputs": [],
      "name": "PrecompileTransferFailed",
      "type": "error"
    },
    {
      "inputs": [],
      "name": "ProxyInsufficientGas",
      "type": "error"
    },
    {
      "inputs": [
        {
          "internalType": "uint256",
          "name": "stakeAmount",
          "type": "uint256"
        },
        {
          "internalType": "uint64",
          "name": "taoInPool",
          "type": "uint64"
        }
      ],
      "name": "StakeExceedsTaoInPool",
      "type": "error"
    },
    {
      "inputs": [],
      "name": "StakingCallFailed",
      "type": "error"
    },
    {
      "inputs": [],
      "name": "UnexpectedFee",
      "type": "error"
    },
    {
      "inputs": [],
      "name": "WithdrawFromDelegateFailed",
      "type": "error"
    },
    {
      "inputs": [],
      "name": "LIMIT_PRICE_DELEGATE",
      "outputs": [
        {
          "internalType": "bytes32",
          "name": "",
          "type": "bytes32"
        }
      ],
      "stateMutability": "view",
      "type": "function"
    },
    {
      "inputs": [],
      "name": "STAKE_INFO_DELEGATE",
      "outputs": [
        {
          "internalType": "bytes32",
          "name": "",
          "type": "bytes32"
        }
      ],
      "stateMutability": "view",
      "type": "function"
    },
    {
      "inputs": [],
      "name": "WITHDRAW_COLDKEY",
      "outputs": [
        {
          "internalType": "bytes32",
          "name": "",
          "type": "bytes32"
        }
      ],
      "stateMutability": "view",
      "type": "function"
    },
    {
      "inputs": [],
      "name": "contractAccountId32",
      "outputs": [
        {
          "internalType": "bytes32",
          "name": "",
          "type": "bytes32"
        }
      ],
      "stateMutability": "view",
      "type": "function"
    },
    {
      "inputs": [
        {
          "internalType": "uint64",
          "name": "execBlock",
          "type": "uint64"
        },
        {
          "internalType": "uint256",
          "name": "packedBalances",
          "type": "uint256"
        }
      ],
      "name": "execute",
      "outputs": [],
      "stateMutability": "nonpayable",
      "type": "function"
    },
    {
      "inputs": [],
      "name": "executeHotkey",
      "outputs": [
        {
          "internalType": "bytes32",
          "name": "",
          "type": "bytes32"
        }
      ],
      "stateMutability": "view",
      "type": "function"
    },
    {
      "inputs": [],
      "name": "executor",
      "outputs": [
        {
          "internalType": "address",
          "name": "",
          "type": "address"
        }
      ],
      "stateMutability": "view",
      "type": "function"
    },
    {
      "inputs": [],
      "name": "getBaseFeesRao",
      "outputs": [
        {
          "internalType": "uint256",
          "name": "stakeInfoBaseFeeRao",
          "type": "uint256"
        },
        {
          "internalType": "uint256",
          "name": "limitPriceBaseFeeRao",
          "type": "uint256"
        }
      ],
      "stateMutability": "view",
      "type": "function"
    },
    {
      "inputs": [
        {
          "internalType": "bytes32",
          "name": "origin_hotkey",
          "type": "bytes32"
        },
        {
          "internalType": "bytes32",
          "name": "destination_hotkey",
          "type": "bytes32"
        },
        {
          "internalType": "uint256",
          "name": "origin_netuid",
          "type": "uint256"
        },
        {
          "internalType": "uint256",
          "name": "destination_netuid",
          "type": "uint256"
        },
        {
          "internalType": "uint256",
          "name": "amount",
          "type": "uint256"
        }
      ],
      "name": "moveStake",
      "outputs": [],
      "stateMutability": "nonpayable",
      "type": "function"
    },
    {
      "inputs": [],
      "name": "owner",
      "outputs": [
        {
          "internalType": "address",
          "name": "",
          "type": "address"
        }
      ],
      "stateMutability": "view",
      "type": "function"
    },
    {
      "inputs": [
        {
          "internalType": "bytes32",
          "name": "hotkey",
          "type": "bytes32"
        },
        {
          "internalType": "uint256",
          "name": "netuid",
          "type": "uint256"
        },
        {
          "internalType": "uint256",
          "name": "amount",
          "type": "uint256"
        }
      ],
      "name": "removeStake",
      "outputs": [],
      "stateMutability": "nonpayable",
      "type": "function"
    },
    {
      "inputs": [
        {
          "internalType": "bytes32",
          "name": "hotkey",
          "type": "bytes32"
        },
        {
          "internalType": "uint256",
          "name": "netuid",
          "type": "uint256"
        },
        {
          "internalType": "uint256",
          "name": "limitPrice",
          "type": "uint256"
        },
        {
          "internalType": "uint256",
          "name": "amount",
          "type": "uint256"
        },
        {
          "internalType": "bool",
          "name": "allowPartial",
          "type": "bool"
        }
      ],
      "name": "removeStakeLimit",
      "outputs": [],
      "stateMutability": "nonpayable",
      "type": "function"
    },
    {
      "inputs": [
        {
          "internalType": "uint256",
          "name": "stakeInfoBaseFeeRao",
          "type": "uint256"
        },
        {
          "internalType": "uint256",
          "name": "limitPriceBaseFeeRao",
          "type": "uint256"
        }
      ],
      "name": "setBaseFeesRao",
      "outputs": [],
      "stateMutability": "nonpayable",
      "type": "function"
    },
    {
      "inputs": [
        {
          "internalType": "bytes32",
          "name": "_id",
          "type": "bytes32"
        }
      ],
      "name": "setContractAccountId32",
      "outputs": [],
      "stateMutability": "nonpayable",
      "type": "function"
    },
    {
      "inputs": [
        {
          "internalType": "bytes32",
          "name": "_hotkey",
          "type": "bytes32"
        }
      ],
      "name": "setExecuteHotkey",
      "outputs": [],
      "stateMutability": "nonpayable",
      "type": "function"
    },
    {
      "inputs": [
        {
          "internalType": "address",
          "name": "_executor",
          "type": "address"
        }
      ],
      "name": "setExecutor",
      "outputs": [],
      "stateMutability": "nonpayable",
      "type": "function"
    },
    {
      "inputs": [
        {
          "internalType": "bytes32",
          "name": "hotkey",
          "type": "bytes32"
        },
        {
          "internalType": "uint256",
          "name": "netuid",
          "type": "uint256"
        },
        {
          "internalType": "uint256",
          "name": "amount",
          "type": "uint256"
        }
      ],
      "name": "stake",
      "outputs": [],
      "stateMutability": "nonpayable",
      "type": "function"
    },
    {
      "inputs": [
        {
          "internalType": "bytes32",
          "name": "hotkey",
          "type": "bytes32"
        },
        {
          "internalType": "uint256",
          "name": "netuid",
          "type": "uint256"
        },
        {
          "internalType": "uint256",
          "name": "limitPrice",
          "type": "uint256"
        },
        {
          "internalType": "uint256",
          "name": "amount",
          "type": "uint256"
        },
        {
          "internalType": "bool",
          "name": "allowPartial",
          "type": "bool"
        }
      ],
      "name": "stakeLimit",
      "outputs": [],
      "stateMutability": "nonpayable",
      "type": "function"
    },
    {
      "inputs": [
        {
          "internalType": "bytes32",
          "name": "hotkey",
          "type": "bytes32"
        },
        {
          "internalType": "uint256",
          "name": "origin_netuid",
          "type": "uint256"
        },
        {
          "internalType": "uint256",
          "name": "destination_netuid",
          "type": "uint256"
        },
        {
          "internalType": "uint256",
          "name": "amount",
          "type": "uint256"
        }
      ],
      "name": "transferStake",
      "outputs": [],
      "stateMutability": "nonpayable",
      "type": "function"
    },
    {
      "inputs": [
        {
          "internalType": "uint256",
          "name": "amount",
          "type": "uint256"
        }
      ],
      "name": "withdraw",
      "outputs": [],
      "stateMutability": "nonpayable",
      "type": "function"
    },
    {
      "stateMutability": "payable",
      "type": "receive"
    }
  ],
  "bytecode": "0x608060405234801561001057600080fd5b50600080546001600160a01b031916331790557fd2bf1f4b165078ea84522345aa3445421141124f26c1314e8c64ac5bc57db642600455611e42806100566000396000f3fe6080604052600436106101235760003560e01c8063796f030b116100a0578063ac868cc811610064578063ac868cc814610339578063b4c1efba1461036d578063c34c08e5146103a1578063c9489238146103c1578063de56fe7b146103e157600080fd5b8063796f030b146102875780637d691e30146102ab5780638da5cb5b146102cb57806390b9d53414610303578063a96cfe7d1461032357600080fd5b80633498cdd0116100e75780633498cdd0146101d1578063629def241461020757806362e76cda146102275780637221c49d14610247578063765fdbec1461026757600080fd5b80631149f6591461012f5780631c3c0ea8146101515780632daedd52146101715780632e1a7d4d146101915780632f9548ac146101b157600080fd5b3661012a57005b600080fd5b34801561013b57600080fd5b5061014f61014a366004611b05565b610415565b005b34801561015d57600080fd5b5061014f61016c366004611ac6565b61056a565b34801561017d57600080fd5b5061014f61018c366004611b3f565b6105b7565b34801561019d57600080fd5b5061014f6101ac366004611aed565b610705565b3480156101bd57600080fd5b5061014f6101cc366004611c40565b610820565b3480156101dd57600080fd5b5060035460408051608083901c81526001600160801b039092166020830152015b60405180910390f35b34801561021357600080fd5b5061014f610222366004611b9b565b610c0e565b34801561023357600080fd5b5061014f610242366004611aed565b610d84565b34801561025357600080fd5b5061014f610262366004611b6a565b610dd2565b34801561027357600080fd5b5061014f610282366004611aed565b610ef7565b34801561029357600080fd5b5061029d60025481565b6040519081526020016101fe565b3480156102b757600080fd5b5061014f6102c6366004611b3f565b610f48565b3480156102d757600080fd5b506000546102eb906001600160a01b031681565b6040516001600160a01b0390911681526020016101fe565b34801561030f57600080fd5b5061014f61031e366004611b9b565b611132565b34801561032f57600080fd5b5061029d60045481565b34801561034557600080fd5b5061029d7fe3154da4f09419591350683863465fe94568b34952c139e0fc2119c1ab64bdf981565b34801561037957600080fd5b5061029d7fdc2489eafe949db828a31e65eff3308a8a60727e876083042abe9162ef68226581565b3480156103ad57600080fd5b506001546102eb906001600160a01b031681565b3480156103cd57600080fd5b5061014f6103dc366004611c03565b61126b565b3480156103ed57600080fd5b5061029d7fb8e67a8ce297cfae057741cc207f1ad0ddba9f41fa388a21a635d422105a7c3581565b6000546001600160a01b0316331480159061044e57506001546001600160a01b0316158061044e57506001546001600160a01b03163314155b1561046c576040516377879ea360e11b815260040160405180910390fd5b600080516020611ded83398151915292831892918218911861048e83826112ab565b6040516024810186905260448101859052606481018490526084810183905260a48101829052600090631149f65960e01b9060c4015b60408051601f198184030181529190526020810180516001600160e01b03166001600160e01b031990931692909217909152905060006108055a8360405161050c9190611ca8565b60006040518083038160008787f1925050503d806000811461054a576040519150601f19603f3d011682016040523d82523d6000602084013e61054f565b606091505b505090508015610560575050610563565b50505b5050505050565b6000546001600160a01b0316331461059557604051635fc483c560e01b815260040160405180910390fd5b600180546001600160a01b0319166001600160a01b0392909216919091179055565b6000546001600160a01b031633148015906105f057506001546001600160a01b031615806105f057506001546001600160a01b03163314155b1561060e576040516377879ea360e11b815260040160405180910390fd5b600080516020611ded833981519152918218911861062c82826113ee565b60408051602481018590526044810183905260648082018590528251808303909101815260849091019091526020810180516001600160e01b0316631fc9b14160e01b1790526000806108055a846040516106879190611ca8565b60006040518083038160008787f1925050503d80600081146106c5576040519150601f19603f3d011682016040523d82523d6000602084013e6106ca565b606091505b5091509150816106fd578051156106e45780518082602001fd5b604051637351203360e11b815260040160405180910390fd5b505050505050565b6000546001600160a01b0316331461073057604051635fc483c560e01b815260040160405180910390fd5b8061074e576040516365e52d5160e11b815260040160405180910390fd5b6040517fe3154da4f09419591350683863465fe94568b34952c139e0fc2119c1ab64bdf9602482015260009061080090839060440160408051601f198184030181529181526020820180516001600160e01b031663cd6f4eb160e01b179052516107b89190611ca8565b60006040518083038185875af1925050503d80600081146107f5576040519150601f19603f3d011682016040523d82523d6000602084013e6107fa565b606091505b505090508061081c5760405163352dfc6960e21b815260040160405180910390fd5b5050565b6000546001600160a01b0316331480159061085957506001546001600160a01b0316158061085957506001546001600160a01b03163314155b15610877576040516377879ea360e11b815260040160405180910390fd5b6002546108975760405163c756071d60e01b815260040160405180910390fd5b6003546108b75760405163071a33dd60e11b815260040160405180910390fd5b60015467ffffffffffffffff838116600160a01b9092041614156108d9575050565b6001805467ffffffffffffffff60a01b1916600160a01b67ffffffffffffffff851690810291909117909155431461092457604051630407b05b60e31b815260040160405180910390fd5b608081901c6001600160801b038216610942633b9aca006002611d42565b82118061095c5750610959633b9aca006002611d42565b81115b1561097a5760405163065ba77960e01b815260040160405180910390fd5b600354608081901c906001600160801b031660006109b97fb8e67a8ce297cfae057741cc207f1ad0ddba9f41fa388a21a635d422105a7c3586856114a5565b905060046109c8600183611d61565b6109d29190611d93565b156109f857604051633082824360e01b8152600481018290526024015b60405180910390fd5b60046000198201046000610a0d608183611d2e565b90506000610a1c608184611d93565b905081610add57600480546002546040516371dacc7d60e11b8152928301919091526024820152604481018290526000906108059063e3b598fa9060640160206040518083038186803b158015610a7257600080fd5b505afa158015610a86573d6000803e3d6000fd5b505050506040513d601f19601f82011682018060405250810190610aaa9190611beb565b600454600080516020611ded833981519152938418939091189150610ad0908383610f48565b5050505050505050505050565b6000633b9aca006001610af08582611d16565b610afb92911c611d42565b90506001808416148015610bcd57610b347fdc2489eafe949db828a31e65eff3308a8a60727e876083042abe9162ef6822658a896114a5565b95506004610b43600188611d61565b610b4d9190611d93565b15610b6e57604051633082824360e01b8152600481018790526024016109ef565b60006127106004600019890104029050600080516020611ded83398151915284189350600080516020611ded83398151915281189050600080516020611ded83398151915283189250610bc76004548583866000611132565b50610c00565b600080516020611ded83398151915283189250600080516020611ded83398151915282189150610c0060045484846105b7565b505050505050505050505050565b6000546001600160a01b03163314801590610c4757506001546001600160a01b03161580610c4757506001546001600160a01b03163314155b15610c65576040516377879ea360e11b815260040160405180910390fd5b600080516020611ded8339815191529384189392831892828118921415610d4957600254610ca65760405163c756071d60e01b815260040160405180910390fd5b6002546040516371dacc7d60e11b8152600481018790526024810191909152604481018590526108059063e3b598fa9060640160206040518083038186803b158015610cf157600080fd5b505afa158015610d05573d6000803e3d6000fd5b505050506040513d601f19601f82011682018060405250810190610d299190611beb565b915081610d49576040516365e52d5160e11b815260040160405180910390fd5b604051602481018690526044810183905260648101849052811515608482015260a48101859052600090630bb4245960e11b9060c4016104c4565b6000546001600160a01b03163314610daf57604051635fc483c560e01b815260040160405180910390fd5b80610dcd5760405163705def1f60e01b815260040160405180910390fd5b600455565b6000546001600160a01b03163314610dfd57604051635fc483c560e01b815260040160405180910390fd5b604080517fe3154da4f09419591350683863465fe94568b34952c139e0fc2119c1ab64bdf9602482015260448101869052600080516020611ded83398151915294851860648201819052938518608482018190529290941860a48086018290528251808703909101815260c49095019091526020840180516001600160e01b0316630be72fb160e11b179052919290919060006108055a83604051610ea29190611ca8565b60006040518083038160008787f1925050503d8060008114610ee0576040519150601f19603f3d011682016040523d82523d6000602084013e610ee5565b606091505b5050905080156106fd57505050505050565b6000546001600160a01b03163314610f2257604051635fc483c560e01b815260040160405180910390fd5b60025415610f435760405163e83dc66b60e01b815260040160405180910390fd5b600255565b6000546001600160a01b03163314801590610f8157506001546001600160a01b03161580610f8157506001546001600160a01b03163314155b15610f9f576040516377879ea360e11b815260040160405180910390fd5b600080516020611ded8339815191529182189181811891141561107f57600254610fdc5760405163c756071d60e01b815260040160405180910390fd5b6002546040516371dacc7d60e11b8152600481018590526024810191909152604481018390526108059063e3b598fa9060640160206040518083038186803b15801561102757600080fd5b505afa15801561103b573d6000803e3d6000fd5b505050506040513d601f19601f8201168201806040525081019061105f9190611beb565b90508061107f576040516365e52d5160e11b815260040160405180910390fd5b60408051602481018590526044810183905260648082018590528251808303909101815260849091019091526020810180516001600160e01b03166307d691e360e41b17905260006108055a836040516110d99190611ca8565b60006040518083038160008787f1925050503d8060008114611117576040519150601f19603f3d011682016040523d82523d6000602084013e61111c565b606091505b505090508015610563575050505050565b505050565b6000546001600160a01b0316331480159061116b57506001546001600160a01b0316158061116b57506001546001600160a01b03163314155b15611189576040516377879ea360e11b815260040160405180910390fd5b600080516020611ded833981519152938418939283189291909118906111af84836113ee565b60408051602481018790526044810184905260648101859052821515608482015260a48082018790528251808303909101815260c49091019091526020810180516001600160e01b03166316fadadd60e21b17905260006108055a836040516112189190611ca8565b60006040518083038160008787f1925050503d8060008114611256576040519150601f19603f3d011682016040523d82523d6000602084013e61125b565b606091505b5050905080610560575050610563565b6000546001600160a01b0316331461129657604051635fc483c560e01b815260040160405180910390fd5b6001600160801b031660809190911b17600355565b60405163a4e7d28d60e01b815261ffff8316600482015267ffffffffffffffff8216602482015282906000906108089063a4e7d28d9060440160206040518083038186803b1580156112fc57600080fd5b505afa158015611310573d6000803e3d6000fd5b505050506040513d601f19601f820116820180604052508101906113349190611beb565b604051632d9bfc7160e01b815261ffff8416600482015290915060009061080890632d9bfc719060240160206040518083038186803b15801561137657600080fd5b505afa15801561138a573d6000803e3d6000fd5b505050506040513d601f19601f820116820180604052508101906113ae9190611c24565b90508067ffffffffffffffff1682111561056357604051630975882f60e11b81526004810183905267ffffffffffffffff821660248201526044016109ef565b604051632d9bfc7160e01b815261ffff8316600482015260009061080890632d9bfc719060240160206040518083038186803b15801561142d57600080fd5b505afa158015611441573d6000803e3d6000fd5b505050506040513d601f19601f820116820180604052508101906114659190611c24565b90508067ffffffffffffffff1682111561112d5760405163511b33ad60e11b81526004810183905267ffffffffffffffff821660248201526044016109ef565b6000804790506114b78560025461160b565b4760006114c48383611d61565b905060006114d6633b9aca0083611d2e565b905067ffffffffffffffff81166115005760405163065ba77960e01b815260040160405180910390fd5b6101f31967ffffffffffffffff82168803018061153057604051634ae9dc4b60e11b815260040160405180910390fd5b6115406103e8633b9aca00611d2e565b61154b906003611d42565b81111561156b5760405163065ba77960e01b815260040160405180910390fd5b6101f3198801633b9aca0002848111156115825750835b801561159257611592818b6119cc565b878210156115b3576040516309e0c11560e41b815260040160405180910390fd5b878203915060408210156115ce575094506116049350505050565b6140008210156115f0576115e3600183611d61565b9650505050505050611604565b6115fb600383611d61565b96505050505050505b9392505050565b7fb8e67a8ce297cfae057741cc207f1ad0ddba9f41fa388a21a635d422105a7c35821480159061165b57507fdc2489eafe949db828a31e65eff3308a8a60727e876083042abe9162ef6822658214155b1561167957604051632d618d8160e21b815260040160405180910390fd5b60408051602480825260608201909252600091602082018180368337019050509050600560f81b816000815181106116c157634e487b7160e01b600052603260045260246000fd5b60200101906001600160f81b031916908160001a905350600460f81b816001815181106116fe57634e487b7160e01b600052603260045260246000fd5b60200101906001600160f81b031916908160001a905350600060f81b8160028151811061173b57634e487b7160e01b600052603260045260246000fd5b60200101906001600160f81b031916908160001a90535060238082018390528151600160f81b918391811061178057634e487b7160e01b600052603260045260246000fd5b60200101906001600160f81b031916908160001a905350604080516001808252818301909252600091602080830190803683370190505090506000816000815181106117dc57634e487b7160e01b600052603260045260246000fd5b602002602001019060ff16908160ff16815250506000825167ffffffffffffffff81111561181a57634e487b7160e01b600052604160045260246000fd5b604051908082528060200260200182016040528015611843578160200160208202803683370190505b50905060005b83518110156118c45783818151811061187257634e487b7160e01b600052603260045260246000fd5b602001015160f81c60f81b60f81c8282815181106118a057634e487b7160e01b600052603260045260246000fd5b60ff90921660209283029190910190910152806118bc81611d78565b915050611849565b506000620ae75960e01b8684846040516024016118e393929190611ce1565b60408051601f198184030181529190526020810180516001600160e01b03166001600160e01b031990931692909217909152905060005a9050620186a081101561194057604051630fd1aa8b60e11b815260040160405180910390fd5b600061080b6001600160a01b0316828460405161195d9190611ca8565b60006040518083038160008787f1925050503d806000811461199b576040519150601f19603f3d011682016040523d82523d6000602084013e6119a0565b606091505b50509050806119c25760405163f549d72f60e01b815260040160405180910390fd5b5050505050505050565b816119ea576040516365e52d5160e11b815260040160405180910390fd5b81471015611a0b57604051631e9acf1760e31b815260040160405180910390fd5b60006108006001600160a01b03168383604051602401611a2d91815260200190565b60408051601f198184030181529181526020820180516001600160e01b031663cd6f4eb160e01b17905251611a629190611ca8565b60006040518083038185875af1925050503d8060008114611a9f576040519150601f19603f3d011682016040523d82523d6000602084013e611aa4565b606091505b505090508061112d5760405163352dfc6960e21b815260040160405180910390fd5b600060208284031215611ad7578081fd5b81356001600160a01b0381168114611604578182fd5b600060208284031215611afe578081fd5b5035919050565b600080600080600060a08688031215611b1c578081fd5b505083359560208501359550604085013594606081013594506080013592509050565b600080600060608486031215611b53578283fd5b505081359360208301359350604090920135919050565b60008060008060808587031215611b7f578384fd5b5050823594602084013594506040840135936060013592509050565b600080600080600060a08688031215611bb2578081fd5b8535945060208601359350604086013592506060860135915060808601358015158114611bdd578182fd5b809150509295509295909350565b600060208284031215611bfc578081fd5b5051919050565b60008060408385031215611c15578182fd5b50508035926020909101359150565b600060208284031215611c35578081fd5b815161160481611dd3565b60008060408385031215611c52578182fd5b8235611c5d81611dd3565b946020939093013593505050565b6000815180845260208085019450808401835b83811015611c9d57815160ff1687529582019590820190600101611c7e565b509495945050505050565b60008251815b81811015611cc85760208186018101518583015201611cae565b81811115611cd65782828501525b509190910192915050565b838152606060208201526000611cfa6060830185611c6b565b8281036040840152611d0c8185611c6b565b9695505050505050565b60008219821115611d2957611d29611da7565b500190565b600082611d3d57611d3d611dbd565b500490565b6000816000190483118215151615611d5c57611d5c611da7565b500290565b600082821015611d7357611d73611da7565b500390565b6000600019821415611d8c57611d8c611da7565b5060010190565b600082611da257611da2611dbd565b500690565b634e487b7160e01b600052601160045260246000fd5b634e487b7160e01b600052601260045260246000fd5b67ffffffffffffffff81168114611de957600080fd5b5056fedeadbeefdeadbeefdeadbeefdeadbeefdeadbeefdeadbeefdeadbeefdeadbeefa2646970667358221220f7c531a390a317d4f37aa640cbbd18ed8b44a14a0f3c91243fc6a797956c24d464736f6c63430008040033",
  "linkReferences": {},
  "deployedLinkReferences": {}
}