{
  "_format": "hh-sol-artifact-1",
  "contractName": "StakeWrap",
  "sourceName": "contracts/StakeWrap.sol",
  "abi": [
    {
      "inputs": [],
      "stateMutability": "nonpayable",
      "type": "constructor"
    },
    {
      "inputs": [],
      "name": "AmountZero",
      "type": "error"
    },
    {
      "inputs": [],
      "name": "BaseFeesNotSet",
      "type": "error"
    },
    {
      "inputs": [],
      "name": "ContractAccountId32AlreadySet",
      "type": "error"
    },
    {
      "inputs": [],
      "name": "ContractAccountId32NotSet",
      "type": "error"
    },
    {
      "inputs": [],
      "name": "Expired",
      "type": "error"
    },
    {
      "inputs": [],
      "name": "Exploited",
      "type": "error"
    },
    {
      "inputs": [
        {
          "internalType": "uint256",
          "name": "fee",
          "type": "uint256"
        }
      ],
      "name": "FeeFormatError",
      "type": "error"
    },
    {
      "inputs": [],
      "name": "InsufficientBalance",
      "type": "error"
    },
    {
      "inputs": [],
      "name": "InvalidDelegate",
      "type": "error"
    },
    {
      "inputs": [],
      "name": "InvalidStakingGateHash",
      "type": "error"
    },
    {
      "inputs": [
        {
          "internalType": "uint256",
          "name": "simTao",
          "type": "uint256"
        },
        {
          "internalType": "uint64",
          "name": "taoInPool",
          "type": "uint64"
        }
      ],
      "name": "MoveStakeSimTaoExceedsPool",
      "type": "error"
    },
    {
      "inputs": [],
      "name": "NoOperation",
      "type": "error"
    },
    {
      "inputs": [],
      "name": "OnlyOwner",
      "type": "error"
    },
    {
      "inputs": [],
      "name": "OnlyOwnerOrExecutor",
      "type": "error"
    },
    {
      "inputs": [],
      "name": "PrecompileTransferFailed",
      "type": "error"
    },
    {
      "inputs": [],
      "name": "ProxyInsufficientGas",
      "type": "error"
    },
    {
      "inputs": [
        {
          "internalType": "uint256",
          "name": "stakeAmount",
          "type": "uint256"
        },
        {
          "internalType": "uint64",
          "name": "taoInPool",
          "type": "uint64"
        }
      ],
      "name": "StakeExceedsTaoInPool",
      "type": "error"
    },
    {
      "inputs": [],
      "name": "StakingCallFailed",
      "type": "error"
    },
    {
      "inputs": [],
      "name": "StakingGateAlreadyConfigured",
      "type": "error"
    },
    {
      "inputs": [],
      "name": "StakingGateNotConfigured",
      "type": "error"
    },
    {
      "inputs": [],
      "name": "StakingUnstakingDisabled",
      "type": "error"
    },
    {
      "inputs": [],
      "name": "UnexpectedFee",
      "type": "error"
    },
    {
      "inputs": [],
      "name": "WithdrawFromDelegateFailed",
      "type": "error"
    },
    {
      "inputs": [],
      "name": "WrongStakingGatePassword",
      "type": "error"
    },
    {
      "inputs": [],
      "name": "DEFAULT_HOTKEY",
      "outputs": [
        {
          "internalType": "bytes32",
          "name": "",
          "type": "bytes32"
        }
      ],
      "stateMutability": "view",
      "type": "function"
    },
    {
      "inputs": [],
      "name": "LIMIT_PRICE_DELEGATE",
      "outputs": [
        {
          "internalType": "bytes32",
          "name": "",
          "type": "bytes32"
        }
      ],
      "stateMutability": "view",
      "type": "function"
    },
    {
      "inputs": [],
      "name": "STAKE_INFO_DELEGATE",
      "outputs": [
        {
          "internalType": "bytes32",
          "name": "",
          "type": "bytes32"
        }
      ],
      "stateMutability": "view",
      "type": "function"
    },
    {
      "inputs": [],
      "name": "WITHDRAW_COLDKEY",
      "outputs": [
        {
          "internalType": "bytes32",
          "name": "",
          "type": "bytes32"
        }
      ],
      "stateMutability": "view",
      "type": "function"
    },
    {
      "inputs": [],
      "name": "contractAccountId32",
      "outputs": [
        {
          "internalType": "bytes32",
          "name": "",
          "type": "bytes32"
        }
      ],
      "stateMutability": "view",
      "type": "function"
    },
    {
      "inputs": [
        {
          "internalType": "uint64",
          "name": "execBlock",
          "type": "uint64"
        },
        {
          "internalType": "uint256",
          "name": "packedBalances",
          "type": "uint256"
        }
      ],
      "name": "execute",
      "outputs": [],
      "stateMutability": "nonpayable",
      "type": "function"
    },
    {
      "inputs": [],
      "name": "executor",
      "outputs": [
        {
          "internalType": "address",
          "name": "",
          "type": "address"
        }
      ],
      "stateMutability": "view",
      "type": "function"
    },
    {
      "inputs": [],
      "name": "getBaseFeesRao",
      "outputs": [
        {
          "internalType": "uint256",
          "name": "stakeInfoBaseFeeRao",
          "type": "uint256"
        },
        {
          "internalType": "uint256",
          "name": "limitPriceBaseFeeRao",
          "type": "uint256"
        }
      ],
      "stateMutability": "view",
      "type": "function"
    },
    {
      "inputs": [
        {
          "internalType": "bytes32",
          "name": "origin_hotkey",
          "type": "bytes32"
        },
        {
          "internalType": "bytes32",
          "name": "destination_hotkey",
          "type": "bytes32"
        },
        {
          "internalType": "uint256",
          "name": "origin_netuid",
          "type": "uint256"
        },
        {
          "internalType": "uint256",
          "name": "destination_netuid",
          "type": "uint256"
        },
        {
          "internalType": "uint256",
          "name": "amount",
          "type": "uint256"
        }
      ],
      "name": "moveStake",
      "outputs": [],
      "stateMutability": "nonpayable",
      "type": "function"
    },
    {
      "inputs": [],
      "name": "owner",
      "outputs": [
        {
          "internalType": "address",
          "name": "",
          "type": "address"
        }
      ],
      "stateMutability": "view",
      "type": "function"
    },
    {
      "inputs": [
        {
          "internalType": "bytes32",
          "name": "hotkey",
          "type": "bytes32"
        },
        {
          "internalType": "uint256",
          "name": "netuid",
          "type": "uint256"
        },
        {
          "internalType": "uint256",
          "name": "amount",
          "type": "uint256"
        }
      ],
      "name": "removeStake",
      "outputs": [],
      "stateMutability": "nonpayable",
      "type": "function"
    },
    {
      "inputs": [
        {
          "internalType": "bytes32",
          "name": "hotkey",
          "type": "bytes32"
        },
        {
          "internalType": "uint256",
          "name": "netuid",
          "type": "uint256"
        },
        {
          "internalType": "uint256",
          "name": "limitPrice",
          "type": "uint256"
        },
        {
          "internalType": "uint256",
          "name": "amount",
          "type": "uint256"
        },
        {
          "internalType": "bool",
          "name": "allowPartial",
          "type": "bool"
        }
      ],
      "name": "removeStakeLimit",
      "outputs": [],
      "stateMutability": "nonpayable",
      "type": "function"
    },
    {
      "inputs": [
        {
          "internalType": "uint256",
          "name": "stakeInfoBaseFeeRao",
          "type": "uint256"
        },
        {
          "internalType": "uint256",
          "name": "limitPriceBaseFeeRao",
          "type": "uint256"
        }
      ],
      "name": "setBaseFeesRao",
      "outputs": [],
      "stateMutability": "nonpayable",
      "type": "function"
    },
    {
      "inputs": [
        {
          "internalType": "bytes32",
          "name": "_id",
          "type": "bytes32"
        }
      ],
      "name": "setContractAccountId32",
      "outputs": [],
      "stateMutability": "nonpayable",
      "type": "function"
    },
    {
      "inputs": [
        {
          "internalType": "address",
          "name": "_executor",
          "type": "address"
        }
      ],
      "name": "setExecutor",
      "outputs": [],
      "stateMutability": "nonpayable",
      "type": "function"
    },
    {
      "inputs": [
        {
          "internalType": "bytes32",
          "name": "hash",
          "type": "bytes32"
        }
      ],
      "name": "setStakingGatePasswordHash",
      "outputs": [],
      "stateMutability": "nonpayable",
      "type": "function"
    },
    {
      "inputs": [
        {
          "internalType": "bool",
          "name": "enabled",
          "type": "bool"
        },
        {
          "internalType": "string",
          "name": "password",
          "type": "string"
        }
      ],
      "name": "setStakingUnstakingEnabled",
      "outputs": [],
      "stateMutability": "nonpayable",
      "type": "function"
    },
    {
      "inputs": [
        {
          "internalType": "bytes32",
          "name": "hotkey",
          "type": "bytes32"
        },
        {
          "internalType": "uint256",
          "name": "netuid",
          "type": "uint256"
        },
        {
          "internalType": "uint256",
          "name": "amount",
          "type": "uint256"
        }
      ],
      "name": "stake",
      "outputs": [],
      "stateMutability": "nonpayable",
      "type": "function"
    },
    {
      "inputs": [
        {
          "internalType": "bytes32",
          "name": "hotkey",
          "type": "bytes32"
        },
        {
          "internalType": "uint256",
          "name": "netuid",
          "type": "uint256"
        },
        {
          "internalType": "uint256",
          "name": "limitPrice",
          "type": "uint256"
        },
        {
          "internalType": "uint256",
          "name": "amount",
          "type": "uint256"
        },
        {
          "internalType": "bool",
          "name": "allowPartial",
          "type": "bool"
        }
      ],
      "name": "stakeLimit",
      "outputs": [],
      "stateMutability": "nonpayable",
      "type": "function"
    },
    {
      "inputs": [],
      "name": "stakingGateConfigured",
      "outputs": [
        {
          "internalType": "bool",
          "name": "",
          "type": "bool"
        }
      ],
      "stateMutability": "view",
      "type": "function"
    },
    {
      "inputs": [],
      "name": "stakingUnstakingEnabled",
      "outputs": [
        {
          "internalType": "bool",
          "name": "",
          "type": "bool"
        }
      ],
      "stateMutability": "view",
      "type": "function"
    },
    {
      "inputs": [
        {
          "internalType": "bytes32",
          "name": "hotkey",
          "type": "bytes32"
        },
        {
          "internalType": "uint256",
          "name": "origin_netuid",
          "type": "uint256"
        },
        {
          "internalType": "uint256",
          "name": "destination_netuid",
          "type": "uint256"
        },
        {
          "internalType": "uint256",
          "name": "amount",
          "type": "uint256"
        }
      ],
      "name": "transferStake",
      "outputs": [],
      "stateMutability": "nonpayable",
      "type": "function"
    },
    {
      "inputs": [
        {
          "internalType": "uint256",
          "name": "amount",
          "type": "uint256"
        }
      ],
      "name": "withdraw",
      "outputs": [],
      "stateMutability": "nonpayable",
      "type": "function"
    },
    {
      "stateMutability": "payable",
      "type": "receive"
    }
  ],
  "bytecode": "0x60806040526004805460ff1916905534801561001a57600080fd5b50600080546001600160a01b031916331790556121118061003c6000396000f3fe6080604052600436106101445760003560e01c8063765fdbec116100b6578063b4c1efba1161006f578063b4c1efba146103c4578063c1d1f9b8146103f8578063c34c08e51461040f578063c94892381461042f578063d46053741461044f578063de56fe7b1461046f57600080fd5b8063765fdbec146102e2578063796f030b146103025780637d691e30146103185780638da5cb5b1461033857806390b9d53414610370578063ac868cc81461039057600080fd5b80632f9548ac116101085780632f9548ac146101f25780633498cdd01461021257806339f7512214610248578063629def24146102725780637197e69e146102925780637221c49d146102c257600080fd5b806306d8b577146101505780631149f659146101725780631c3c0ea8146101925780632daedd52146101b25780632e1a7d4d146101d257600080fd5b3661014b57005b600080fd5b34801561015c57600080fd5b5061017061016b366004611d94565b6104a3565b005b34801561017e57600080fd5b5061017061018d366004611dac565b610512565b34801561019e57600080fd5b506101706101ad366004611cef565b61068a565b3480156101be57600080fd5b506101706101cd366004611de6565b6106d7565b3480156101de57600080fd5b506101706101ed366004611d94565b610848565b3480156101fe57600080fd5b5061017061020d366004611edf565b610963565b34801561021e57600080fd5b5060035460408051608083901c81526001600160801b039092166020830152015b60405180910390f35b34801561025457600080fd5b506004546102629060ff1681565b604051901515815260200161023f565b34801561027e57600080fd5b5061017061028d366004611e42565b610d6e565b34801561029e57600080fd5b506102b46000805160206120bc83398151915281565b60405190815260200161023f565b3480156102ce57600080fd5b506101706102dd366004611e11565b610f07565b3480156102ee57600080fd5b506101706102fd366004611d94565b61102c565b34801561030e57600080fd5b506102b460025481565b34801561032457600080fd5b50610170610333366004611de6565b61107d565b34801561034457600080fd5b50600054610358906001600160a01b031681565b6040516001600160a01b03909116815260200161023f565b34801561037c57600080fd5b5061017061038b366004611e42565b61128a565b34801561039c57600080fd5b506102b47fe3154da4f09419591350683863465fe94568b34952c139e0fc2119c1ab64bdf981565b3480156103d057600080fd5b506102b47fdc2489eafe949db828a31e65eff3308a8a60727e876083042abe9162ef68226581565b34801561040457600080fd5b506005541515610262565b34801561041b57600080fd5b50600154610358906001600160a01b031681565b34801561043b57600080fd5b5061017061044a366004611ea2565b6113e6565b34801561045b57600080fd5b5061017061046a366004611d16565b611426565b34801561047b57600080fd5b506102b47fb8e67a8ce297cfae057741cc207f1ad0ddba9f41fa388a21a635d422105a7c3581565b6000546001600160a01b031633146104ce57604051635fc483c560e01b815260040160405180910390fd5b600554156104ef57604051633e65cc0160e01b815260040160405180910390fd5b8061050d576040516305cc234f60e21b815260040160405180910390fd5b600555565b6000546001600160a01b0316331480159061054b57506001546001600160a01b0316158061054b57506001546001600160a01b03163314155b15610569576040516377879ea360e11b815260040160405180910390fd5b60045460ff1661058c5760405163700c83ab60e01b815260040160405180910390fd5b60008051602061209c8339815191529283189291821891186105ae83826114bf565b6040516024810186905260448101859052606481018490526084810183905260a48101829052600090631149f65960e01b9060c4015b60408051601f198184030181529190526020810180516001600160e01b03166001600160e01b031990931692909217909152905060006108055a8360405161062c9190611f57565b60006040518083038160008787f1925050503d806000811461066a576040519150601f19603f3d011682016040523d82523d6000602084013e61066f565b606091505b505090508015610680575050610683565b50505b5050505050565b6000546001600160a01b031633146106b557604051635fc483c560e01b815260040160405180910390fd5b600180546001600160a01b0319166001600160a01b0392909216919091179055565b6000546001600160a01b0316331480159061071057506001546001600160a01b0316158061071057506001546001600160a01b03163314155b1561072e576040516377879ea360e11b815260040160405180910390fd5b60045460ff166107515760405163700c83ab60e01b815260040160405180910390fd5b60008051602061209c833981519152918218911861076f8282611602565b60408051602481018590526044810183905260648082018590528251808303909101815260849091019091526020810180516001600160e01b0316631fc9b14160e01b1790526000806108055a846040516107ca9190611f57565b60006040518083038160008787f1925050503d8060008114610808576040519150601f19603f3d011682016040523d82523d6000602084013e61080d565b606091505b509150915081610840578051156108275780518082602001fd5b604051637351203360e11b815260040160405180910390fd5b505050505050565b6000546001600160a01b0316331461087357604051635fc483c560e01b815260040160405180910390fd5b80610891576040516365e52d5160e11b815260040160405180910390fd5b6040517fe3154da4f09419591350683863465fe94568b34952c139e0fc2119c1ab64bdf9602482015260009061080090839060440160408051601f198184030181529181526020820180516001600160e01b031663cd6f4eb160e01b179052516108fb9190611f57565b60006040518083038185875af1925050503d8060008114610938576040519150601f19603f3d011682016040523d82523d6000602084013e61093d565b606091505b505090508061095f5760405163352dfc6960e21b815260040160405180910390fd5b5050565b6000546001600160a01b0316331480159061099c57506001546001600160a01b0316158061099c57506001546001600160a01b03163314155b156109ba576040516377879ea360e11b815260040160405180910390fd5b60045460ff166109dd5760405163700c83ab60e01b815260040160405180910390fd5b6002546109fd5760405163c756071d60e01b815260040160405180910390fd5b600354610a1d5760405163071a33dd60e11b815260040160405180910390fd5b60015467ffffffffffffffff838116600160a01b909204161415610a3f575050565b6001805467ffffffffffffffff60a01b1916600160a01b67ffffffffffffffff8516908102919091179091554314610a8a57604051630407b05b60e31b815260040160405180910390fd5b608081901c6001600160801b038216610aa8633b9aca006002611ff1565b821180610ac25750610abf633b9aca006002611ff1565b81115b15610ae05760405163065ba77960e01b815260040160405180910390fd5b600354608081901c906001600160801b03166000610b1f7fb8e67a8ce297cfae057741cc207f1ad0ddba9f41fa388a21a635d422105a7c3586856116b9565b90506004610b2e600183612010565b610b389190612042565b15610b5e57604051633082824360e01b8152600481018290526024015b60405180910390fd5b60046000198201046000610b73608183611fdd565b90506000610b82608184612042565b905081610c58576002546040516371dacc7d60e11b81526000805160206120bc83398151915260048201526024810191909152604481018290526000906108059063e3b598fa9060640160206040518083038186803b158015610be457600080fd5b505afa158015610bf8573d6000803e3d6000fd5b505050506040513d601f19601f82011682018060405250810190610c1c9190611e8a565b60008051602061209c83398151915292831892189050610c4b6000805160206120bc833981519152838361107d565b5050505050505050505050565b6000633b9aca006001610c6b8582611fc5565b610c7692911c611ff1565b90506001808416148015610d2f57610caf7fdc2489eafe949db828a31e65eff3308a8a60727e876083042abe9162ef6822658a896116b9565b95506004610cbe600188612010565b610cc89190612042565b15610ce957604051633082824360e01b815260048101879052602401610b55565b60008051602061209c833981519152928318929182189160046000198801046127100218610d296000805160206120bc833981519152858386600061128a565b50610d60565b60008051602061209c833981519152928318929190911890610d606000805160206120bc83398151915284846106d7565b505050505050505050505050565b6000546001600160a01b03163314801590610da757506001546001600160a01b03161580610da757506001546001600160a01b03163314155b15610dc5576040516377879ea360e11b815260040160405180910390fd5b60045460ff16610de85760405163700c83ab60e01b815260040160405180910390fd5b60008051602061209c8339815191529384189392831892828118921415610ecc57600254610e295760405163c756071d60e01b815260040160405180910390fd5b6002546040516371dacc7d60e11b8152600481018790526024810191909152604481018590526108059063e3b598fa9060640160206040518083038186803b158015610e7457600080fd5b505afa158015610e88573d6000803e3d6000fd5b505050506040513d601f19601f82011682018060405250810190610eac9190611e8a565b915081610ecc576040516365e52d5160e11b815260040160405180910390fd5b604051602481018690526044810183905260648101849052811515608482015260a48101859052600090630bb4245960e11b9060c4016105e4565b6000546001600160a01b03163314610f3257604051635fc483c560e01b815260040160405180910390fd5b604080517fe3154da4f09419591350683863465fe94568b34952c139e0fc2119c1ab64bdf960248201526044810186905260008051602061209c83398151915294851860648201819052938518608482018190529290941860a48086018290528251808703909101815260c49095019091526020840180516001600160e01b0316630be72fb160e11b179052919290919060006108055a83604051610fd79190611f57565b60006040518083038160008787f1925050503d8060008114611015576040519150601f19603f3d011682016040523d82523d6000602084013e61101a565b606091505b50509050801561084057505050505050565b6000546001600160a01b0316331461105757604051635fc483c560e01b815260040160405180910390fd5b600254156110785760405163e83dc66b60e01b815260040160405180910390fd5b600255565b6000546001600160a01b031633148015906110b657506001546001600160a01b031615806110b657506001546001600160a01b03163314155b156110d4576040516377879ea360e11b815260040160405180910390fd5b60045460ff166110f75760405163700c83ab60e01b815260040160405180910390fd5b60008051602061209c833981519152918218918181189114156111d7576002546111345760405163c756071d60e01b815260040160405180910390fd5b6002546040516371dacc7d60e11b8152600481018590526024810191909152604481018390526108059063e3b598fa9060640160206040518083038186803b15801561117f57600080fd5b505afa158015611193573d6000803e3d6000fd5b505050506040513d601f19601f820116820180604052508101906111b79190611e8a565b9050806111d7576040516365e52d5160e11b815260040160405180910390fd5b60408051602481018590526044810183905260648082018590528251808303909101815260849091019091526020810180516001600160e01b03166307d691e360e41b17905260006108055a836040516112319190611f57565b60006040518083038160008787f1925050503d806000811461126f576040519150601f19603f3d011682016040523d82523d6000602084013e611274565b606091505b505090508015610683575050505050565b505050565b6000546001600160a01b031633148015906112c357506001546001600160a01b031615806112c357506001546001600160a01b03163314155b156112e1576040516377879ea360e11b815260040160405180910390fd5b60045460ff166113045760405163700c83ab60e01b815260040160405180910390fd5b60008051602061209c8339815191529384189392831892919091189061132a8483611602565b60408051602481018790526044810184905260648101859052821515608482015260a48082018790528251808303909101815260c49091019091526020810180516001600160e01b03166316fadadd60e21b17905260006108055a836040516113939190611f57565b60006040518083038160008787f1925050503d80600081146113d1576040519150601f19603f3d011682016040523d82523d6000602084013e6113d6565b606091505b5050905080610680575050610683565b6000546001600160a01b0316331461141157604051635fc483c560e01b815260040160405180910390fd5b6001600160801b031660809190911b17600355565b6000546001600160a01b0316331461145157604051635fc483c560e01b815260040160405180910390fd5b600554611471576040516390eb417360e01b815260040160405180910390fd5b6005548282604051611484929190611f47565b6040518091039020146114aa57604051630948104960e41b815260040160405180910390fd5b50506004805460ff1916911515919091179055565b60405163a4e7d28d60e01b815261ffff8316600482015267ffffffffffffffff8216602482015282906000906108089063a4e7d28d9060440160206040518083038186803b15801561151057600080fd5b505afa158015611524573d6000803e3d6000fd5b505050506040513d601f19601f820116820180604052508101906115489190611e8a565b604051632d9bfc7160e01b815261ffff8416600482015290915060009061080890632d9bfc719060240160206040518083038186803b15801561158a57600080fd5b505afa15801561159e573d6000803e3d6000fd5b505050506040513d601f19601f820116820180604052508101906115c29190611ec3565b90508067ffffffffffffffff1682111561068357604051630975882f60e11b81526004810183905267ffffffffffffffff82166024820152604401610b55565b604051632d9bfc7160e01b815261ffff8316600482015260009061080890632d9bfc719060240160206040518083038186803b15801561164157600080fd5b505afa158015611655573d6000803e3d6000fd5b505050506040513d601f19601f820116820180604052508101906116799190611ec3565b90508067ffffffffffffffff168211156112855760405163511b33ad60e11b81526004810183905267ffffffffffffffff82166024820152604401610b55565b6000804790506116cb8560025461181f565b4760006116d88383612010565b905060006116ea633b9aca0083611fdd565b905067ffffffffffffffff81166117145760405163065ba77960e01b815260040160405180910390fd5b6101f31967ffffffffffffffff82168803018061174457604051634ae9dc4b60e11b815260040160405180910390fd5b6117546103e8633b9aca00611fdd565b61175f906003611ff1565b81111561177f5760405163065ba77960e01b815260040160405180910390fd5b6101f3198801633b9aca0002848111156117965750835b80156117a6576117a6818b611be0565b878210156117c7576040516309e0c11560e41b815260040160405180910390fd5b878203915060408210156117e2575094506118189350505050565b614000821015611804576117f7600183612010565b9650505050505050611818565b61180f600383612010565b96505050505050505b9392505050565b7fb8e67a8ce297cfae057741cc207f1ad0ddba9f41fa388a21a635d422105a7c35821480159061186f57507fdc2489eafe949db828a31e65eff3308a8a60727e876083042abe9162ef6822658214155b1561188d57604051632d618d8160e21b815260040160405180910390fd5b60408051602480825260608201909252600091602082018180368337019050509050600560f81b816000815181106118d557634e487b7160e01b600052603260045260246000fd5b60200101906001600160f81b031916908160001a905350600460f81b8160018151811061191257634e487b7160e01b600052603260045260246000fd5b60200101906001600160f81b031916908160001a905350600060f81b8160028151811061194f57634e487b7160e01b600052603260045260246000fd5b60200101906001600160f81b031916908160001a90535060238082018390528151600160f81b918391811061199457634e487b7160e01b600052603260045260246000fd5b60200101906001600160f81b031916908160001a905350604080516001808252818301909252600091602080830190803683370190505090506000816000815181106119f057634e487b7160e01b600052603260045260246000fd5b602002602001019060ff16908160ff16815250506000825167ffffffffffffffff811115611a2e57634e487b7160e01b600052604160045260246000fd5b604051908082528060200260200182016040528015611a57578160200160208202803683370190505b50905060005b8351811015611ad857838181518110611a8657634e487b7160e01b600052603260045260246000fd5b602001015160f81c60f81b60f81c828281518110611ab457634e487b7160e01b600052603260045260246000fd5b60ff9092166020928302919091019091015280611ad081612027565b915050611a5d565b506000620ae75960e01b868484604051602401611af793929190611f90565b60408051601f198184030181529190526020810180516001600160e01b03166001600160e01b031990931692909217909152905060005a9050620186a0811015611b5457604051630fd1aa8b60e11b815260040160405180910390fd5b600061080b6001600160a01b03168284604051611b719190611f57565b60006040518083038160008787f1925050503d8060008114611baf576040519150601f19603f3d011682016040523d82523d6000602084013e611bb4565b606091505b5050905080611bd65760405163f549d72f60e01b815260040160405180910390fd5b5050505050505050565b81611bfe576040516365e52d5160e11b815260040160405180910390fd5b81471015611c1f57604051631e9acf1760e31b815260040160405180910390fd5b60006108006001600160a01b03168383604051602401611c4191815260200190565b60408051601f198184030181529181526020820180516001600160e01b031663cd6f4eb160e01b17905251611c769190611f57565b60006040518083038185875af1925050503d8060008114611cb3576040519150601f19603f3d011682016040523d82523d6000602084013e611cb8565b606091505b50509050806112855760405163352dfc6960e21b815260040160405180910390fd5b80358015158114611cea57600080fd5b919050565b600060208284031215611d00578081fd5b81356001600160a01b0381168114611818578182fd5b600080600060408486031215611d2a578182fd5b611d3384611cda565b9250602084013567ffffffffffffffff80821115611d4f578384fd5b818601915086601f830112611d62578384fd5b813581811115611d70578485fd5b876020828501011115611d81578485fd5b6020830194508093505050509250925092565b600060208284031215611da5578081fd5b5035919050565b600080600080600060a08688031215611dc3578081fd5b505083359560208501359550604085013594606081013594506080013592509050565b600080600060608486031215611dfa578283fd5b505081359360208301359350604090920135919050565b60008060008060808587031215611e26578384fd5b5050823594602084013594506040840135936060013592509050565b600080600080600060a08688031215611e59578081fd5b85359450602086013593506040860135925060608601359150611e7e60808701611cda565b90509295509295909350565b600060208284031215611e9b578081fd5b5051919050565b60008060408385031215611eb4578182fd5b50508035926020909101359150565b600060208284031215611ed4578081fd5b815161181881612082565b60008060408385031215611ef1578182fd5b8235611efc81612082565b946020939093013593505050565b6000815180845260208085019450808401835b83811015611f3c57815160ff1687529582019590820190600101611f1d565b509495945050505050565b8183823760009101908152919050565b60008251815b81811015611f775760208186018101518583015201611f5d565b81811115611f855782828501525b509190910192915050565b838152606060208201526000611fa96060830185611f0a565b8281036040840152611fbb8185611f0a565b9695505050505050565b60008219821115611fd857611fd8612056565b500190565b600082611fec57611fec61206c565b500490565b600081600019048311821515161561200b5761200b612056565b500290565b60008282101561202257612022612056565b500390565b600060001982141561203b5761203b612056565b5060010190565b6000826120515761205161206c565b500690565b634e487b7160e01b600052601160045260246000fd5b634e487b7160e01b600052601260045260246000fd5b67ffffffffffffffff8116811461209857600080fd5b5056fedeadbeefdeadbeefdeadbeefdeadbeefdeadbeefdeadbeefdeadbeefdeadbeefd2bf1f4b165078ea84522345aa3445421141124f26c1314e8c64ac5bc57db642a2646970667358221220590f1da496f14862ff140fcaedc649fef94852fee22d7e90d5ad64e92884c4d464736f6c63430008040033",
  "linkReferences": {},
  "deployedLinkReferences": {}
}