{
  "_format": "hh-sol-artifact-1",
  "contractName": "StakeWrap",
  "sourceName": "contracts/StakeWrap.sol",
  "abi": [
    {
      "inputs": [],
      "stateMutability": "nonpayable",
      "type": "constructor"
    },
    {
      "inputs": [],
      "name": "AmountZero",
      "type": "error"
    },
    {
      "inputs": [],
      "name": "BaseFeesNotSet",
      "type": "error"
    },
    {
      "inputs": [],
      "name": "ContractAccountId32AlreadySet",
      "type": "error"
    },
    {
      "inputs": [],
      "name": "ContractAccountId32NotSet",
      "type": "error"
    },
    {
      "inputs": [],
      "name": "Expired",
      "type": "error"
    },
    {
      "inputs": [],
      "name": "Exploited",
      "type": "error"
    },
    {
      "inputs": [
        {
          "internalType": "uint256",
          "name": "fee",
          "type": "uint256"
        }
      ],
      "name": "FeeFormatError",
      "type": "error"
    },
    {
      "inputs": [],
      "name": "InsufficientBalance",
      "type": "error"
    },
    {
      "inputs": [],
      "name": "InvalidDelegate",
      "type": "error"
    },
    {
      "inputs": [
        {
          "internalType": "uint256",
          "name": "simTao",
          "type": "uint256"
        },
        {
          "internalType": "uint64",
          "name": "taoInPool",
          "type": "uint64"
        }
      ],
      "name": "MoveStakeSimTaoExceedsPool",
      "type": "error"
    },
    {
      "inputs": [],
      "name": "NoOperation",
      "type": "error"
    },
    {
      "inputs": [],
      "name": "OnlyOwner",
      "type": "error"
    },
    {
      "inputs": [],
      "name": "OnlyOwnerOrExecutor",
      "type": "error"
    },
    {
      "inputs": [],
      "name": "PrecompileTransferFailed",
      "type": "error"
    },
    {
      "inputs": [],
      "name": "ProxyInsufficientGas",
      "type": "error"
    },
    {
      "inputs": [
        {
          "internalType": "uint256",
          "name": "stakeAmount",
          "type": "uint256"
        },
        {
          "internalType": "uint64",
          "name": "taoInPool",
          "type": "uint64"
        }
      ],
      "name": "StakeExceedsTaoInPool",
      "type": "error"
    },
    {
      "inputs": [],
      "name": "StakingCallFailed",
      "type": "error"
    },
    {
      "inputs": [],
      "name": "UnexpectedFee",
      "type": "error"
    },
    {
      "inputs": [],
      "name": "WithdrawFromDelegateFailed",
      "type": "error"
    },
    {
      "inputs": [],
      "name": "DEFAULT_HOTKEY",
      "outputs": [
        {
          "internalType": "bytes32",
          "name": "",
          "type": "bytes32"
        }
      ],
      "stateMutability": "view",
      "type": "function"
    },
    {
      "inputs": [],
      "name": "LIMIT_PRICE_DELEGATE",
      "outputs": [
        {
          "internalType": "bytes32",
          "name": "",
          "type": "bytes32"
        }
      ],
      "stateMutability": "view",
      "type": "function"
    },
    {
      "inputs": [],
      "name": "STAKE_INFO_DELEGATE",
      "outputs": [
        {
          "internalType": "bytes32",
          "name": "",
          "type": "bytes32"
        }
      ],
      "stateMutability": "view",
      "type": "function"
    },
    {
      "inputs": [],
      "name": "WITHDRAW_COLDKEY",
      "outputs": [
        {
          "internalType": "bytes32",
          "name": "",
          "type": "bytes32"
        }
      ],
      "stateMutability": "view",
      "type": "function"
    },
    {
      "inputs": [],
      "name": "contractAccountId32",
      "outputs": [
        {
          "internalType": "bytes32",
          "name": "",
          "type": "bytes32"
        }
      ],
      "stateMutability": "view",
      "type": "function"
    },
    {
      "inputs": [
        {
          "internalType": "uint64",
          "name": "execBlock",
          "type": "uint64"
        },
        {
          "internalType": "uint256",
          "name": "packedBalances",
          "type": "uint256"
        }
      ],
      "name": "execute",
      "outputs": [],
      "stateMutability": "nonpayable",
      "type": "function"
    },
    {
      "inputs": [],
      "name": "executor",
      "outputs": [
        {
          "internalType": "address",
          "name": "",
          "type": "address"
        }
      ],
      "stateMutability": "view",
      "type": "function"
    },
    {
      "inputs": [],
      "name": "getBaseFeesRao",
      "outputs": [
        {
          "internalType": "uint256",
          "name": "stakeInfoBaseFeeRao",
          "type": "uint256"
        },
        {
          "internalType": "uint256",
          "name": "limitPriceBaseFeeRao",
          "type": "uint256"
        }
      ],
      "stateMutability": "view",
      "type": "function"
    },
    {
      "inputs": [
        {
          "internalType": "bytes32",
          "name": "origin_hotkey",
          "type": "bytes32"
        },
        {
          "internalType": "bytes32",
          "name": "destination_hotkey",
          "type": "bytes32"
        },
        {
          "internalType": "uint256",
          "name": "origin_netuid",
          "type": "uint256"
        },
        {
          "internalType": "uint256",
          "name": "destination_netuid",
          "type": "uint256"
        },
        {
          "internalType": "uint256",
          "name": "amount",
          "type": "uint256"
        }
      ],
      "name": "moveStake",
      "outputs": [],
      "stateMutability": "nonpayable",
      "type": "function"
    },
    {
      "inputs": [],
      "name": "owner",
      "outputs": [
        {
          "internalType": "address",
          "name": "",
          "type": "address"
        }
      ],
      "stateMutability": "view",
      "type": "function"
    },
    {
      "inputs": [
        {
          "internalType": "bytes32",
          "name": "hotkey",
          "type": "bytes32"
        },
        {
          "internalType": "uint256",
          "name": "netuid",
          "type": "uint256"
        },
        {
          "internalType": "uint256",
          "name": "amount",
          "type": "uint256"
        }
      ],
      "name": "removeStake",
      "outputs": [],
      "stateMutability": "nonpayable",
      "type": "function"
    },
    {
      "inputs": [
        {
          "internalType": "bytes32",
          "name": "hotkey",
          "type": "bytes32"
        },
        {
          "internalType": "uint256",
          "name": "netuid",
          "type": "uint256"
        },
        {
          "internalType": "uint256",
          "name": "limitPrice",
          "type": "uint256"
        },
        {
          "internalType": "uint256",
          "name": "amount",
          "type": "uint256"
        },
        {
          "internalType": "bool",
          "name": "allowPartial",
          "type": "bool"
        }
      ],
      "name": "removeStakeLimit",
      "outputs": [],
      "stateMutability": "nonpayable",
      "type": "function"
    },
    {
      "inputs": [
        {
          "internalType": "uint256",
          "name": "stakeInfoBaseFeeRao",
          "type": "uint256"
        },
        {
          "internalType": "uint256",
          "name": "limitPriceBaseFeeRao",
          "type": "uint256"
        }
      ],
      "name": "setBaseFeesRao",
      "outputs": [],
      "stateMutability": "nonpayable",
      "type": "function"
    },
    {
      "inputs": [
        {
          "internalType": "bytes32",
          "name": "_id",
          "type": "bytes32"
        }
      ],
      "name": "setContractAccountId32",
      "outputs": [],
      "stateMutability": "nonpayable",
      "type": "function"
    },
    {
      "inputs": [
        {
          "internalType": "address",
          "name": "_executor",
          "type": "address"
        }
      ],
      "name": "setExecutor",
      "outputs": [],
      "stateMutability": "nonpayable",
      "type": "function"
    },
    {
      "inputs": [
        {
          "internalType": "bytes32",
          "name": "hotkey",
          "type": "bytes32"
        },
        {
          "internalType": "uint256",
          "name": "netuid",
          "type": "uint256"
        },
        {
          "internalType": "uint256",
          "name": "amount",
          "type": "uint256"
        }
      ],
      "name": "stake",
      "outputs": [],
      "stateMutability": "nonpayable",
      "type": "function"
    },
    {
      "inputs": [
        {
          "internalType": "bytes32",
          "name": "hotkey",
          "type": "bytes32"
        },
        {
          "internalType": "uint256",
          "name": "netuid",
          "type": "uint256"
        },
        {
          "internalType": "uint256",
          "name": "limitPrice",
          "type": "uint256"
        },
        {
          "internalType": "uint256",
          "name": "amount",
          "type": "uint256"
        },
        {
          "internalType": "bool",
          "name": "allowPartial",
          "type": "bool"
        }
      ],
      "name": "stakeLimit",
      "outputs": [],
      "stateMutability": "nonpayable",
      "type": "function"
    },
    {
      "inputs": [
        {
          "internalType": "bytes32",
          "name": "hotkey",
          "type": "bytes32"
        },
        {
          "internalType": "uint256",
          "name": "origin_netuid",
          "type": "uint256"
        },
        {
          "internalType": "uint256",
          "name": "destination_netuid",
          "type": "uint256"
        },
        {
          "internalType": "uint256",
          "name": "amount",
          "type": "uint256"
        }
      ],
      "name": "transferStake",
      "outputs": [],
      "stateMutability": "nonpayable",
      "type": "function"
    },
    {
      "inputs": [
        {
          "internalType": "uint256",
          "name": "amount",
          "type": "uint256"
        }
      ],
      "name": "withdraw",
      "outputs": [],
      "stateMutability": "nonpayable",
      "type": "function"
    },
    {
      "stateMutability": "payable",
      "type": "receive"
    }
  ],
  "bytecode": "0x608060405234801561001057600080fd5b50600080546001600160a01b03191633179055611def806100326000396000f3fe6080604052600436106101185760003560e01c8063765fdbec116100a0578063ac868cc811610064578063ac868cc81461031a578063b4c1efba1461034e578063c34c08e514610382578063c9489238146103a2578063de56fe7b146103c257600080fd5b8063765fdbec1461026c578063796f030b1461028c5780637d691e30146102a25780638da5cb5b146102c257806390b9d534146102fa57600080fd5b80632f9548ac116100e75780632f9548ac146101a65780633498cdd0146101c6578063629def24146101fc5780637197e69e1461021c5780637221c49d1461024c57600080fd5b80631149f659146101245780631c3c0ea8146101465780632daedd52146101665780632e1a7d4d1461018657600080fd5b3661011f57005b600080fd5b34801561013057600080fd5b5061014461013f366004611a92565b6103f6565b005b34801561015257600080fd5b50610144610161366004611a53565b61054b565b34801561017257600080fd5b50610144610181366004611acc565b610598565b34801561019257600080fd5b506101446101a1366004611a7a565b6106e6565b3480156101b257600080fd5b506101446101c1366004611bcd565b610801565b3480156101d257600080fd5b5060035460408051608083901c81526001600160801b039092166020830152015b60405180910390f35b34801561020857600080fd5b50610144610217366004611b28565b610be9565b34801561022857600080fd5b5061023e600080516020611d9a83398151915281565b6040519081526020016101f3565b34801561025857600080fd5b50610144610267366004611af7565b610d5f565b34801561027857600080fd5b50610144610287366004611a7a565b610e84565b34801561029857600080fd5b5061023e60025481565b3480156102ae57600080fd5b506101446102bd366004611acc565b610ed5565b3480156102ce57600080fd5b506000546102e2906001600160a01b031681565b6040516001600160a01b0390911681526020016101f3565b34801561030657600080fd5b50610144610315366004611b28565b6110bf565b34801561032657600080fd5b5061023e7fe3154da4f09419591350683863465fe94568b34952c139e0fc2119c1ab64bdf981565b34801561035a57600080fd5b5061023e7fdc2489eafe949db828a31e65eff3308a8a60727e876083042abe9162ef68226581565b34801561038e57600080fd5b506001546102e2906001600160a01b031681565b3480156103ae57600080fd5b506101446103bd366004611b90565b6111f8565b3480156103ce57600080fd5b5061023e7fb8e67a8ce297cfae057741cc207f1ad0ddba9f41fa388a21a635d422105a7c3581565b6000546001600160a01b0316331480159061042f57506001546001600160a01b0316158061042f57506001546001600160a01b03163314155b1561044d576040516377879ea360e11b815260040160405180910390fd5b600080516020611d7a83398151915292831892918218911861046f8382611238565b6040516024810186905260448101859052606481018490526084810183905260a48101829052600090631149f65960e01b9060c4015b60408051601f198184030181529190526020810180516001600160e01b03166001600160e01b031990931692909217909152905060006108055a836040516104ed9190611c35565b60006040518083038160008787f1925050503d806000811461052b576040519150601f19603f3d011682016040523d82523d6000602084013e610530565b606091505b505090508015610541575050610544565b50505b5050505050565b6000546001600160a01b0316331461057657604051635fc483c560e01b815260040160405180910390fd5b600180546001600160a01b0319166001600160a01b0392909216919091179055565b6000546001600160a01b031633148015906105d157506001546001600160a01b031615806105d157506001546001600160a01b03163314155b156105ef576040516377879ea360e11b815260040160405180910390fd5b600080516020611d7a833981519152918218911861060d828261137b565b60408051602481018590526044810183905260648082018590528251808303909101815260849091019091526020810180516001600160e01b0316631fc9b14160e01b1790526000806108055a846040516106689190611c35565b60006040518083038160008787f1925050503d80600081146106a6576040519150601f19603f3d011682016040523d82523d6000602084013e6106ab565b606091505b5091509150816106de578051156106c55780518082602001fd5b604051637351203360e11b815260040160405180910390fd5b505050505050565b6000546001600160a01b0316331461071157604051635fc483c560e01b815260040160405180910390fd5b8061072f576040516365e52d5160e11b815260040160405180910390fd5b6040517fe3154da4f09419591350683863465fe94568b34952c139e0fc2119c1ab64bdf9602482015260009061080090839060440160408051601f198184030181529181526020820180516001600160e01b031663cd6f4eb160e01b179052516107999190611c35565b60006040518083038185875af1925050503d80600081146107d6576040519150601f19603f3d011682016040523d82523d6000602084013e6107db565b606091505b50509050806107fd5760405163352dfc6960e21b815260040160405180910390fd5b5050565b6000546001600160a01b0316331480159061083a57506001546001600160a01b0316158061083a57506001546001600160a01b03163314155b15610858576040516377879ea360e11b815260040160405180910390fd5b6002546108785760405163c756071d60e01b815260040160405180910390fd5b6003546108985760405163071a33dd60e11b815260040160405180910390fd5b60015467ffffffffffffffff838116600160a01b9092041614156108ba575050565b6001805467ffffffffffffffff60a01b1916600160a01b67ffffffffffffffff851690810291909117909155431461090557604051630407b05b60e31b815260040160405180910390fd5b608081901c6001600160801b038216610923633b9aca006002611ccf565b82118061093d575061093a633b9aca006002611ccf565b81115b1561095b5760405163065ba77960e01b815260040160405180910390fd5b600354608081901c906001600160801b0316600061099a7fb8e67a8ce297cfae057741cc207f1ad0ddba9f41fa388a21a635d422105a7c358685611432565b905060046109a9600183611cee565b6109b39190611d20565b156109d957604051633082824360e01b8152600481018290526024015b60405180910390fd5b600460001982010460006109ee608183611cbb565b905060006109fd608184611d20565b905081610ad3576002546040516371dacc7d60e11b8152600080516020611d9a83398151915260048201526024810191909152604481018290526000906108059063e3b598fa9060640160206040518083038186803b158015610a5f57600080fd5b505afa158015610a73573d6000803e3d6000fd5b505050506040513d601f19601f82011682018060405250810190610a979190611b78565b600080516020611d7a83398151915292831892189050610ac6600080516020611d9a8339815191528383610ed5565b5050505050505050505050565b6000633b9aca006001610ae68582611ca3565b610af192911c611ccf565b90506001808416148015610baa57610b2a7fdc2489eafe949db828a31e65eff3308a8a60727e876083042abe9162ef6822658a89611432565b95506004610b39600188611cee565b610b439190611d20565b15610b6457604051633082824360e01b8152600481018790526024016109d0565b600080516020611d7a833981519152928318929182189160046000198801046127100218610ba4600080516020611d9a83398151915285838660006110bf565b50610bdb565b600080516020611d7a833981519152928318929190911890610bdb600080516020611d9a8339815191528484610598565b505050505050505050505050565b6000546001600160a01b03163314801590610c2257506001546001600160a01b03161580610c2257506001546001600160a01b03163314155b15610c40576040516377879ea360e11b815260040160405180910390fd5b600080516020611d7a8339815191529384189392831892828118921415610d2457600254610c815760405163c756071d60e01b815260040160405180910390fd5b6002546040516371dacc7d60e11b8152600481018790526024810191909152604481018590526108059063e3b598fa9060640160206040518083038186803b158015610ccc57600080fd5b505afa158015610ce0573d6000803e3d6000fd5b505050506040513d601f19601f82011682018060405250810190610d049190611b78565b915081610d24576040516365e52d5160e11b815260040160405180910390fd5b604051602481018690526044810183905260648101849052811515608482015260a48101859052600090630bb4245960e11b9060c4016104a5565b6000546001600160a01b03163314610d8a57604051635fc483c560e01b815260040160405180910390fd5b604080517fe3154da4f09419591350683863465fe94568b34952c139e0fc2119c1ab64bdf9602482015260448101869052600080516020611d7a83398151915294851860648201819052938518608482018190529290941860a48086018290528251808703909101815260c49095019091526020840180516001600160e01b0316630be72fb160e11b179052919290919060006108055a83604051610e2f9190611c35565b60006040518083038160008787f1925050503d8060008114610e6d576040519150601f19603f3d011682016040523d82523d6000602084013e610e72565b606091505b5050905080156106de57505050505050565b6000546001600160a01b03163314610eaf57604051635fc483c560e01b815260040160405180910390fd5b60025415610ed05760405163e83dc66b60e01b815260040160405180910390fd5b600255565b6000546001600160a01b03163314801590610f0e57506001546001600160a01b03161580610f0e57506001546001600160a01b03163314155b15610f2c576040516377879ea360e11b815260040160405180910390fd5b600080516020611d7a8339815191529182189181811891141561100c57600254610f695760405163c756071d60e01b815260040160405180910390fd5b6002546040516371dacc7d60e11b8152600481018590526024810191909152604481018390526108059063e3b598fa9060640160206040518083038186803b158015610fb457600080fd5b505afa158015610fc8573d6000803e3d6000fd5b505050506040513d601f19601f82011682018060405250810190610fec9190611b78565b90508061100c576040516365e52d5160e11b815260040160405180910390fd5b60408051602481018590526044810183905260648082018590528251808303909101815260849091019091526020810180516001600160e01b03166307d691e360e41b17905260006108055a836040516110669190611c35565b60006040518083038160008787f1925050503d80600081146110a4576040519150601f19603f3d011682016040523d82523d6000602084013e6110a9565b606091505b505090508015610544575050505050565b505050565b6000546001600160a01b031633148015906110f857506001546001600160a01b031615806110f857506001546001600160a01b03163314155b15611116576040516377879ea360e11b815260040160405180910390fd5b600080516020611d7a8339815191529384189392831892919091189061113c848361137b565b60408051602481018790526044810184905260648101859052821515608482015260a48082018790528251808303909101815260c49091019091526020810180516001600160e01b03166316fadadd60e21b17905260006108055a836040516111a59190611c35565b60006040518083038160008787f1925050503d80600081146111e3576040519150601f19603f3d011682016040523d82523d6000602084013e6111e8565b606091505b5050905080610541575050610544565b6000546001600160a01b0316331461122357604051635fc483c560e01b815260040160405180910390fd5b6001600160801b031660809190911b17600355565b60405163a4e7d28d60e01b815261ffff8316600482015267ffffffffffffffff8216602482015282906000906108089063a4e7d28d9060440160206040518083038186803b15801561128957600080fd5b505afa15801561129d573d6000803e3d6000fd5b505050506040513d601f19601f820116820180604052508101906112c19190611b78565b604051632d9bfc7160e01b815261ffff8416600482015290915060009061080890632d9bfc719060240160206040518083038186803b15801561130357600080fd5b505afa158015611317573d6000803e3d6000fd5b505050506040513d601f19601f8201168201806040525081019061133b9190611bb1565b90508067ffffffffffffffff1682111561054457604051630975882f60e11b81526004810183905267ffffffffffffffff821660248201526044016109d0565b604051632d9bfc7160e01b815261ffff8316600482015260009061080890632d9bfc719060240160206040518083038186803b1580156113ba57600080fd5b505afa1580156113ce573d6000803e3d6000fd5b505050506040513d601f19601f820116820180604052508101906113f29190611bb1565b90508067ffffffffffffffff168211156110ba5760405163511b33ad60e11b81526004810183905267ffffffffffffffff821660248201526044016109d0565b60008047905061144485600254611598565b4760006114518383611cee565b90506000611463633b9aca0083611cbb565b905067ffffffffffffffff811661148d5760405163065ba77960e01b815260040160405180910390fd5b6101f31967ffffffffffffffff8216880301806114bd57604051634ae9dc4b60e11b815260040160405180910390fd5b6114cd6103e8633b9aca00611cbb565b6114d8906003611ccf565b8111156114f85760405163065ba77960e01b815260040160405180910390fd5b6101f3198801633b9aca00028481111561150f5750835b801561151f5761151f818b611959565b87821015611540576040516309e0c11560e41b815260040160405180910390fd5b8782039150604082101561155b575094506115919350505050565b61400082101561157d57611570600183611cee565b9650505050505050611591565b611588600383611cee565b96505050505050505b9392505050565b7fb8e67a8ce297cfae057741cc207f1ad0ddba9f41fa388a21a635d422105a7c3582148015906115e857507fdc2489eafe949db828a31e65eff3308a8a60727e876083042abe9162ef6822658214155b1561160657604051632d618d8160e21b815260040160405180910390fd5b60408051602480825260608201909252600091602082018180368337019050509050600560f81b8160008151811061164e57634e487b7160e01b600052603260045260246000fd5b60200101906001600160f81b031916908160001a905350600460f81b8160018151811061168b57634e487b7160e01b600052603260045260246000fd5b60200101906001600160f81b031916908160001a905350600060f81b816002815181106116c857634e487b7160e01b600052603260045260246000fd5b60200101906001600160f81b031916908160001a90535060238082018390528151600160f81b918391811061170d57634e487b7160e01b600052603260045260246000fd5b60200101906001600160f81b031916908160001a9053506040805160018082528183019092526000916020808301908036833701905050905060008160008151811061176957634e487b7160e01b600052603260045260246000fd5b602002602001019060ff16908160ff16815250506000825167ffffffffffffffff8111156117a757634e487b7160e01b600052604160045260246000fd5b6040519080825280602002602001820160405280156117d0578160200160208202803683370190505b50905060005b8351811015611851578381815181106117ff57634e487b7160e01b600052603260045260246000fd5b602001015160f81c60f81b60f81c82828151811061182d57634e487b7160e01b600052603260045260246000fd5b60ff909216602092830291909101909101528061184981611d05565b9150506117d6565b506000620ae75960e01b86848460405160240161187093929190611c6e565b60408051601f198184030181529190526020810180516001600160e01b03166001600160e01b031990931692909217909152905060005a9050620186a08110156118cd57604051630fd1aa8b60e11b815260040160405180910390fd5b600061080b6001600160a01b031682846040516118ea9190611c35565b60006040518083038160008787f1925050503d8060008114611928576040519150601f19603f3d011682016040523d82523d6000602084013e61192d565b606091505b505090508061194f5760405163f549d72f60e01b815260040160405180910390fd5b5050505050505050565b81611977576040516365e52d5160e11b815260040160405180910390fd5b8147101561199857604051631e9acf1760e31b815260040160405180910390fd5b60006108006001600160a01b031683836040516024016119ba91815260200190565b60408051601f198184030181529181526020820180516001600160e01b031663cd6f4eb160e01b179052516119ef9190611c35565b60006040518083038185875af1925050503d8060008114611a2c576040519150601f19603f3d011682016040523d82523d6000602084013e611a31565b606091505b50509050806110ba5760405163352dfc6960e21b815260040160405180910390fd5b600060208284031215611a64578081fd5b81356001600160a01b0381168114611591578182fd5b600060208284031215611a8b578081fd5b5035919050565b600080600080600060a08688031215611aa9578081fd5b505083359560208501359550604085013594606081013594506080013592509050565b600080600060608486031215611ae0578283fd5b505081359360208301359350604090920135919050565b60008060008060808587031215611b0c578384fd5b5050823594602084013594506040840135936060013592509050565b600080600080600060a08688031215611b3f578081fd5b8535945060208601359350604086013592506060860135915060808601358015158114611b6a578182fd5b809150509295509295909350565b600060208284031215611b89578081fd5b5051919050565b60008060408385031215611ba2578182fd5b50508035926020909101359150565b600060208284031215611bc2578081fd5b815161159181611d60565b60008060408385031215611bdf578182fd5b8235611bea81611d60565b946020939093013593505050565b6000815180845260208085019450808401835b83811015611c2a57815160ff1687529582019590820190600101611c0b565b509495945050505050565b60008251815b81811015611c555760208186018101518583015201611c3b565b81811115611c635782828501525b509190910192915050565b838152606060208201526000611c876060830185611bf8565b8281036040840152611c998185611bf8565b9695505050505050565b60008219821115611cb657611cb6611d34565b500190565b600082611cca57611cca611d4a565b500490565b6000816000190483118215151615611ce957611ce9611d34565b500290565b600082821015611d0057611d00611d34565b500390565b6000600019821415611d1957611d19611d34565b5060010190565b600082611d2f57611d2f611d4a565b500690565b634e487b7160e01b600052601160045260246000fd5b634e487b7160e01b600052601260045260246000fd5b67ffffffffffffffff81168114611d7657600080fd5b5056fedeadbeefdeadbeefdeadbeefdeadbeefdeadbeefdeadbeefdeadbeefdeadbeefd2bf1f4b165078ea84522345aa3445421141124f26c1314e8c64ac5bc57db642a26469706673582212206c6c82479a80d9cc89f0eb252cd01abb9eb620fdbe9eb84b1cab285e52b931fa64736f6c63430008040033",
  "linkReferences": {},
  "deployedLinkReferences": {}
}